{
  "_format": "hh-sol-artifact-1",
  "contractName": "MarketRegistry",
  "sourceName": "contracts/MarketRegistry.sol",
  "abi": [
    {
      "inputs": [
        {
          "internalType": "uint256",
          "name": "marketId",
          "type": "uint256"
        },
        {
          "internalType": "bool",
          "name": "side",
          "type": "bool"
        },
        {
          "internalType": "uint256",
          "name": "amount",
          "type": "uint256"
        }
      ],
      "name": "addToPool",
      "outputs": [],
      "stateMutability": "nonpayable",
      "type": "function"
    },
    {
      "inputs": [
        {
          "internalType": "uint256",
          "name": "marketId",
          "type": "uint256"
        }
      ],
      "name": "getMarket",
      "outputs": [
        {
          "components": [
            {
              "internalType": "string",
              "name": "name",
              "type": "string"
            },
            {
              "internalType": "uint256",
              "name": "yesPool",
              "type": "uint256"
            },
            {
              "internalType": "uint256",
              "name": "noPool",
              "type": "uint256"
            },
            {
              "internalType": "bool",
              "name": "resolved",
              "type": "bool"
            },
            {
              "internalType": "bool",
              "name": "outcome",
              "type": "bool"
            }
          ],
          "internalType": "struct MarketRegistry.Market",
          "name": "",
          "type": "tuple"
        }
      ],
      "stateMutability": "view",
      "type": "function"
    }
  ],
  "bytecode": "0x608060405234801561001057600080fd5b5061055d806100206000396000f3fe608060405234801561001057600080fd5b50600436106100365760003560e01c806399aa1b451461003b578063eb44fdd314610057575b600080fd5b6100556004803603810190610050919061029e565b610087565b005b610071600480360381019061006c91906102f1565b6100f0565b60405161007e9190610442565b60405180910390f35b81156100be578060008085815260200190815260200160002060010160008282546100b29190610493565b925050819055506100eb565b8060008085815260200190815260200160002060020160008282546100e39190610493565b925050819055505b505050565b6100f86101f8565b6000808381526020019081526020016000206040518060a0016040529081600082018054610125906104f6565b80601f0160208091040260200160405190810160405280929190818152602001828054610151906104f6565b801561019e5780601f106101735761010080835404028352916020019161019e565b820191906000526020600020905b81548152906001019060200180831161018157829003601f168201915b5050505050815260200160018201548152602001600282015481526020016003820160009054906101000a900460ff161515151581526020016003820160019054906101000a900460ff1615151515815250509050919050565b6040518060a001604052806060815260200160008152602001600081526020016000151581526020016000151581525090565b600080fd5b6000819050919050565b61024381610230565b811461024e57600080fd5b50565b6000813590506102608161023a565b92915050565b60008115159050919050565b61027b81610266565b811461028657600080fd5b50565b60008135905061029881610272565b92915050565b6000806000606084860312156102b7576102b661022b565b5b60006102c586828701610251565b93505060206102d686828701610289565b92505060406102e786828701610251565b9150509250925092565b6000602082840312156103075761030661022b565b5b600061031584828501610251565b91505092915050565b600081519050919050565b600082825260208201905092915050565b60005b8381101561035857808201518184015260208101905061033d565b60008484015250505050565b6000601f19601f8301169050919050565b60006103808261031e565b61038a8185610329565b935061039a81856020860161033a565b6103a381610364565b840191505092915050565b6103b781610230565b82525050565b6103c681610266565b82525050565b600060a08301600083015184820360008601526103e98282610375565b91505060208301516103fe60208601826103ae565b50604083015161041160408601826103ae565b50606083015161042460608601826103bd565b50608083015161043760808601826103bd565b508091505092915050565b6000602082019050818103600083015261045c81846103cc565b905092915050565b7f4e487b7100000000000000000000000000000000000000000000000000000000600052601160045260246000fd5b600061049e82610230565b91506104a983610230565b92508282019050808211156104c1576104c0610464565b5b92915050565b7f4e487b7100000000000000000000000000000000000000000000000000000000600052602260045260246000fd5b6000600282049050600182168061050e57607f821691505b602082108103610521576105206104c7565b5b5091905056fea26469706673582212205c156bb996fb61d773e0f7418363fe283726704dc4e97716adf60e425aca05a164736f6c63430008140033",
  "linkReferences": {},
  "deployedLinkReferences": {}
}