{
  "_format": "hh-sol-artifact-1",
  "contractName": "VictoryPool",
  "sourceName": "contracts/VictoryPool.sol",
  "abi": [
    {
      "inputs": [
        {
          "internalType": "address",
          "name": "_vpt",
          "type": "address"
        },
        {
          "internalType": "address",
          "name": "_registry",
          "type": "address"
        }
      ],
      "stateMutability": "nonpayable",
      "type": "constructor"
    },
    {
      "inputs": [
        {
          "internalType": "uint256",
          "name": "",
          "type": "uint256"
        },
        {
          "internalType": "address",
          "name": "",
          "type": "address"
        }
      ],
      "name": "bets",
      "outputs": [
        {
          "internalType": "uint256",
          "name": "amount",
          "type": "uint256"
        },
        {
          "internalType": "bool",
          "name": "side",
          "type": "bool"
        },
        {
          "internalType": "bool",
          "name": "claimed",
          "type": "bool"
        }
      ],
      "stateMutability": "view",
      "type": "function"
    },
    {
      "inputs": [
        {
          "internalType": "uint256",
          "name": "marketId",
          "type": "uint256"
        }
      ],
      "name": "claim",
      "outputs": [],
      "stateMutability": "nonpayable",
      "type": "function"
    },
    {
      "inputs": [
        {
          "internalType": "uint256",
          "name": "marketId",
          "type": "uint256"
        },
        {
          "internalType": "bool",
          "name": "side",
          "type": "bool"
        },
        {
          "internalType": "uint256",
          "name": "amount",
          "type": "uint256"
        }
      ],
      "name": "placeBet",
      "outputs": [],
      "stateMutability": "nonpayable",
      "type": "function"
    },
    {
      "inputs": [],
      "name": "registry",
      "outputs": [
        {
          "internalType": "contract MarketRegistry",
          "name": "",
          "type": "address"
        }
      ],
      "stateMutability": "view",
      "type": "function"
    },
    {
      "inputs": [],
      "name": "vpt",
      "outputs": [
        {
          "internalType": "contract IVPToken",
          "name": "",
          "type": "address"
        }
      ],
      "stateMutability": "view",
      "type": "function"
    }
  ],
  "bytecode": "0x60c06040523480156200001157600080fd5b50604051620012c5380380620012c5833981810160405281019062000037919062000111565b8173ffffffffffffffffffffffffffffffffffffffff1660808173ffffffffffffffffffffffffffffffffffffffff16815250508073ffffffffffffffffffffffffffffffffffffffff1660a08173ffffffffffffffffffffffffffffffffffffffff1681525050505062000158565b600080fd5b600073ffffffffffffffffffffffffffffffffffffffff82169050919050565b6000620000d982620000ac565b9050919050565b620000eb81620000cc565b8114620000f757600080fd5b50565b6000815190506200010b81620000e0565b92915050565b600080604083850312156200012b576200012a620000a7565b5b60006200013b85828601620000fa565b92505060206200014e85828601620000fa565b9150509250929050565b60805160a051611124620001a160003960008181610106015281816102d0015281816103f2015261070601526000818161022f01528181610640015261072a01526111246000f3fe608060405234801561001057600080fd5b50600436106100575760003560e01c80631a38cac61461005c578063379607f5146100785780637b10399914610094578063ed943481146100b2578063f644b3bb146100d0575b600080fd5b6100766004803603810190610071919061081f565b610102565b005b610092600480360381019061008d9190610872565b6103ee565b005b61009c610704565b6040516100a9919061091e565b60405180910390f35b6100ba610728565b6040516100c7919061095a565b60405180910390f35b6100ea60048036038101906100e591906109b3565b61074c565b6040516100f993929190610a11565b60405180910390f35b60007f000000000000000000000000000000000000000000000000000000000000000073ffffffffffffffffffffffffffffffffffffffff1663eb44fdd3856040518263ffffffff1660e01b815260040161015d9190610a48565b600060405180830381865afa15801561017a573d6000803e3d6000fd5b505050506040513d6000823e3d601f19601f820116820180604052508101906101a39190610ca0565b90508060600151156101ea576040517f08c379a00000000000000000000000000000000000000000000000000000000081526004016101e190610d46565b60405180910390fd5b6000821161022d576040517f08c379a000000000000000000000000000000000000000000000000000000000815260040161022490610db2565b60405180910390fd5b7f000000000000000000000000000000000000000000000000000000000000000073ffffffffffffffffffffffffffffffffffffffff166323b872dd3330856040518463ffffffff1660e01b815260040161028a93929190610de1565b6020604051808303816000875af11580156102a9573d6000803e3d6000fd5b505050506040513d601f19601f820116820180604052508101906102cd9190610e18565b507f000000000000000000000000000000000000000000000000000000000000000073ffffffffffffffffffffffffffffffffffffffff166399aa1b458585856040518463ffffffff1660e01b815260040161032b93929190610e45565b600060405180830381600087803b15801561034557600080fd5b505af1158015610359573d6000803e3d6000fd5b50505050600080600086815260200190815260200160002060003373ffffffffffffffffffffffffffffffffffffffff1673ffffffffffffffffffffffffffffffffffffffff1681526020019081526020016000209050828160000160008282546103c49190610eab565b92505081905550838160010160006101000a81548160ff0219169083151502179055505050505050565b60007f000000000000000000000000000000000000000000000000000000000000000073ffffffffffffffffffffffffffffffffffffffff1663eb44fdd3836040518263ffffffff1660e01b81526004016104499190610a48565b600060405180830381865afa158015610466573d6000803e3d6000fd5b505050506040513d6000823e3d601f19601f8201168201806040525081019061048f9190610ca0565b9050600080600084815260200190815260200160002060003373ffffffffffffffffffffffffffffffffffffffff1673ffffffffffffffffffffffffffffffffffffffff16815260200190815260200160002090508160600151610528576040517f08c379a000000000000000000000000000000000000000000000000000000000815260040161051f90610f2b565b60405180910390fd5b8060010160019054906101000a900460ff161561057a576040517f08c379a000000000000000000000000000000000000000000000000000000000815260040161057190610f97565b60405180910390fd5b60008160000154116105c1576040517f08c379a00000000000000000000000000000000000000000000000000000000081526004016105b890611003565b60405180910390fd5b816080015115158160010160009054906101000a900460ff161515036106e2576000826040015183602001516105f79190610eab565b90506000836080015161060e578360400151610614565b83602001515b905060008111156106df576000818385600001546106329190611023565b61063c9190611094565b90507f000000000000000000000000000000000000000000000000000000000000000073ffffffffffffffffffffffffffffffffffffffff1663a9059cbb33836040518363ffffffff1660e01b81526004016106999291906110c5565b6020604051808303816000875af11580156106b8573d6000803e3d6000fd5b505050506040513d601f19601f820116820180604052508101906106dc9190610e18565b50505b50505b60018160010160016101000a81548160ff021916908315150217905550505050565b7f000000000000000000000000000000000000000000000000000000000000000081565b7f000000000000000000000000000000000000000000000000000000000000000081565b6000602052816000526040600020602052806000526040600020600091509150508060000154908060010160009054906101000a900460ff16908060010160019054906101000a900460ff16905083565b6000604051905090565b600080fd5b600080fd5b6000819050919050565b6107c4816107b1565b81146107cf57600080fd5b50565b6000813590506107e1816107bb565b92915050565b60008115159050919050565b6107fc816107e7565b811461080757600080fd5b50565b600081359050610819816107f3565b92915050565b600080600060608486031215610838576108376107a7565b5b6000610846868287016107d2565b93505060206108578682870161080a565b9250506040610868868287016107d2565b9150509250925092565b600060208284031215610888576108876107a7565b5b6000610896848285016107d2565b91505092915050565b600073ffffffffffffffffffffffffffffffffffffffff82169050919050565b6000819050919050565b60006108e46108df6108da8461089f565b6108bf565b61089f565b9050919050565b60006108f6826108c9565b9050919050565b6000610908826108eb565b9050919050565b610918816108fd565b82525050565b6000602082019050610933600083018461090f565b92915050565b6000610944826108eb565b9050919050565b61095481610939565b82525050565b600060208201905061096f600083018461094b565b92915050565b60006109808261089f565b9050919050565b61099081610975565b811461099b57600080fd5b50565b6000813590506109ad81610987565b92915050565b600080604083850312156109ca576109c96107a7565b5b60006109d8858286016107d2565b92505060206109e98582860161099e565b9150509250929050565b6109fc816107b1565b82525050565b610a0b816107e7565b82525050565b6000606082019050610a2660008301866109f3565b610a336020830185610a02565b610a406040830184610a02565b949350505050565b6000602082019050610a5d60008301846109f3565b92915050565b600080fd5b6000601f19601f8301169050919050565b7f4e487b7100000000000000000000000000000000000000000000000000000000600052604160045260246000fd5b610ab182610a68565b810181811067ffffffffffffffff82111715610ad057610acf610a79565b5b80604052505050565b6000610ae361079d565b9050610aef8282610aa8565b919050565b600080fd5b600080fd5b600080fd5b600067ffffffffffffffff821115610b1e57610b1d610a79565b5b610b2782610a68565b9050602081019050919050565b60005b83811015610b52578082015181840152602081019050610b37565b60008484015250505050565b6000610b71610b6c84610b03565b610ad9565b905082815260208101848484011115610b8d57610b8c610afe565b5b610b98848285610b34565b509392505050565b600082601f830112610bb557610bb4610af9565b5b8151610bc5848260208601610b5e565b91505092915050565b600081519050610bdd816107bb565b92915050565b600081519050610bf2816107f3565b92915050565b600060a08284031215610c0e57610c0d610a63565b5b610c1860a0610ad9565b9050600082015167ffffffffffffffff811115610c3857610c37610af4565b5b610c4484828501610ba0565b6000830152506020610c5884828501610bce565b6020830152506040610c6c84828501610bce565b6040830152506060610c8084828501610be3565b6060830152506080610c9484828501610be3565b60808301525092915050565b600060208284031215610cb657610cb56107a7565b5b600082015167ffffffffffffffff811115610cd457610cd36107ac565b5b610ce084828501610bf8565b91505092915050565b600082825260208201905092915050565b7f4d61726b6574207265736f6c7665640000000000000000000000000000000000600082015250565b6000610d30600f83610ce9565b9150610d3b82610cfa565b602082019050919050565b60006020820190508181036000830152610d5f81610d23565b9050919050565b7f5a65726f20626574000000000000000000000000000000000000000000000000600082015250565b6000610d9c600883610ce9565b9150610da782610d66565b602082019050919050565b60006020820190508181036000830152610dcb81610d8f565b9050919050565b610ddb81610975565b82525050565b6000606082019050610df66000830186610dd2565b610e036020830185610dd2565b610e1060408301846109f3565b949350505050565b600060208284031215610e2e57610e2d6107a7565b5b6000610e3c84828501610be3565b91505092915050565b6000606082019050610e5a60008301866109f3565b610e676020830185610a02565b610e7460408301846109f3565b949350505050565b7f4e487b7100000000000000000000000000000000000000000000000000000000600052601160045260246000fd5b6000610eb6826107b1565b9150610ec1836107b1565b9250828201905080821115610ed957610ed8610e7c565b5b92915050565b7f4e6f74207265736f6c7665640000000000000000000000000000000000000000600082015250565b6000610f15600c83610ce9565b9150610f2082610edf565b602082019050919050565b60006020820190508181036000830152610f4481610f08565b9050919050565b7f416c726561647920636c61696d65640000000000000000000000000000000000600082015250565b6000610f81600f83610ce9565b9150610f8c82610f4b565b602082019050919050565b60006020820190508181036000830152610fb081610f74565b9050919050565b7f4e6f206265740000000000000000000000000000000000000000000000000000600082015250565b6000610fed600683610ce9565b9150610ff882610fb7565b602082019050919050565b6000602082019050818103600083015261101c81610fe0565b9050919050565b600061102e826107b1565b9150611039836107b1565b9250828202611047816107b1565b9150828204841483151761105e5761105d610e7c565b5b5092915050565b7f4e487b7100000000000000000000000000000000000000000000000000000000600052601260045260246000fd5b600061109f826107b1565b91506110aa836107b1565b9250826110ba576110b9611065565b5b828204905092915050565b60006040820190506110da6000830185610dd2565b6110e760208301846109f3565b939250505056fea26469706673582212204fada081be86399a8e37825bc48f52415c225cb23d9c4f5ccb28ba404168a04164736f6c63430008140033",
  "linkReferences": {},
  "deployedLinkReferences": {}
}